:10000000003000206D1100001514000015140000D0
:10001000151400001514000015140000151400003C
:10002000151400001514000015140000151400002C
:10003000151400001514000015140000151400001C
:10004000151400001514000015140000151400000C
:1000500015140000151400001514000015140000FC
:1000600015140000151400001514000015140000EC
:10007000A1080000DD0800001909000015140000A7
:1000800015140000151400001514000015140000CC
:1000900015140000151400001514000015140000BC
:1000A00015140000151400001514000015140000AC
:1000B000151400001514000015140000151400009C
:10080000002934D00123002210B488422CD30124C3
:100810002407A14204D2814202D209011B01F8E758
:10082000E400A14204D2814202D249005B00F8E711
:10083000884201D3401A1A434C08A04202D3001B3D
:100840005C0822438C08A04202D3001B9C08224370
:10085000CC08A04202D3001BDC082243002803D0AE
:100860001B0901D00909E3E7101C10BC70470028E0
:1008700001D00020C04307B4024802A140180290F2
:1008800003BDC046190000000029F0D003B5FFF7F2
:10089000B9FF0EBC4243891A1847C0467047C0468C
:1008A00090B583B000AFBB1D01221A7072B6FC1D5B
:1008B000BB1D0020191C00F0D7FA031C2370BB1DC0
:1008C0001B78002B05D1FB1D1B780020191C00F0A4
:1008D00049FA62B6BD4603B090BDC04690B583B03C
:1008E00000AFBB1D01221A7072B6FC1DBB1D01209A
:1008F000191C00F0B9FA031C2370BB1D1B78002BD8
:1009000005D1FB1D1B780120191C00F02BFA62B6E3
:10091000BD4603B090BDC04690B583B000AFBB1DCF
:1009200001221A7072B6FC1DBB1D0220191C00F0BA
:100930009BFA031C2370BB1D1B78002B05D1FB1DEC
:100940001B780220191C00F00DFA62B6BD4603B0F8
:1009500090BDC04680B582B000AF72B60A23FF33A7
:10096000181C002100F078F896239B01002000213C
:100970001A1C00F0C1F896239B01012002211A1CC9
:1009800000F0BAF896239B01022002211A1C00F005
:10099000B3F8154B0020191C00F02EFA134B012060
:1009A000191C00F029FA124B0220191C00F024FA3D
:1009B00000237B60002000F0ADFA012000F0AAFACD
:1009C000022000F0A7FA62B67B6801337B607A6888
:1009D000084B9A4207D900237B600A23FF33181C77
:1009E00000F050F8F0E7EFE71C1400002C140000B2
:1009F0003C1400005FE3160090B583B000AF021C0A
:100A0000BB1D1A80BB1D1B88202B02D9BB1D2022B9
:100A10001A80104A0F49C0235B00C958BB1D1888B3
:100A20001F2303400120041C9C40231C1943C023A6
:100A30005B00D150074B074A1168BA1D10881F226E
:100A400002400120041C9440221C0A431A60BD4647
:100A500003B090BD00E100E080B582B000AF0A1C99
:100A6000BB1D011C19807B1D1A70BB1D1A887B1DC4
:100A70001B78101C01211A1C00F09AFABD4602B026
:100A800080BDC04680B582B000AF021CBB1D1A807D
:100A9000BB1D1B88181C00F03FFBBD4602B080BD8B
:100AA00080B500AF134B134A1278D2B203210A4328
:100AB000D2B21A700F4B0F4A127AD2B21A720D4B81
:100AC0000C4AD278D2B214210A43D2B2DA70094B5E
:100AD000084A5278D2B201210A43D2B25A70C046B3
:100AE000044B9B79DBB21A1C01231340F8D0BD469E
:100AF00080BDC0460040064090B589B000AFB960E7
:100B00007A603B1C0F33021C1A708D4BBB613B1C7F
:100B10000F331B785A1E8B4B9200D3587B613B1CC2
:100B20000F331B78002B00D099E0BB68002B02D05C
:100B3000012B0CD01EE0FFF7B3FF834A8249834BA1
:100B4000CB58C02109051943804BD15012E07E4A91
:100B50007D497E4BCB588021C90419437B4BD15032
:100B6000794A7949794BCB58802149021943774B0F
:100B7000D150C046764BC02292009A63744BC0227B
:100B80009200DA63704A7049724BCB588021C900D9
:100B90001943704BD150BB69DB78DBB20C22934315
:100BA000DAB2BB69DA70BB68002B03D1FA231B01F0
:100BB000FB6104E0BB68012B01D1674BFB61FB6962
:100BC000FA2292005A437B681B01101C191CFFF784
:100BD00017FE031C9CB2BB691B78DAB23B1C1333B3
:100BE0001F218A431A70221CF8235B0113401B1239
:100BF000DAB21F231340DAB23B1C13331B781343C2
:100C0000DAB2BB691A70E2B2BB695A704C4B0F2260
:100C10009A724B4B00229A70494B00229A71484BB2
:100C200000221A72464B00225A72454B444A1279EE
:100C3000D2B21F210A43D2B21A71414B404A5279B3
:100C4000D2B2402149420A43D2B25A71BB69DB7821
:100C5000DBB20C221343DAB2BB69DA706DE03B1CE5
:100C60000F331B78012B02D0022B12D023E03B4B19
:100C7000C02292001A60394BC02292005A60324A58
:100C80003149344BCB58802109011943314BD150A4
:100C900011E0324B8022D2009A65304B8022D20084
:100CA000DA65294A28492B4BCB5880214901194341
:100CB000284BD150C0467B69DB78DBB20C229343D2
:100CC000DAB27B69DA707B6900229A707B681B015B
:100CD0002348191CFFF794FD031C9CB27B691B7809
:100CE000DAB23B1C13331F218A431A70221CF823EB
:100CF0005B0113401B12DAB21F231340DAB23B1C14
:100D000013331B781343DAB27B691A70E2B27B6942
:100D10005A707B6900229A707B6900229A717B6904
:100D20001F221A717B6900225A717B69DB78DBB262
:100D30000C221343DAB27B69DA70BD4609B090BD6C
:100D400000A006404C140000007004400410000095
:100D5000009004403410000080BB000000D004402C
:100D600000366E0180B586B000AF0A1CFB1D011C69
:100D70001970BB1D1A701D4B3B61FB1D1B785A1E61
:100D80001B4B9200D358FB6000237B611EE0FB1DD0
:100D90001B78002B0BD13B691B79DBB2DBB25BB25A
:100DA000002B10DA3B69BA1D1278DA7112E0FB6889
:100DB0001B79DBB2DBB25BB2002B04DAFB68BA1D35
:100DC0001278DA7106E07B6901337B617A69094B3D
:100DD0009A42DCD97A69074B9A4201D9012300E093
:100DE0000023181CBD4606B080BDC04600A00640CA
:100DF0004C140000BAFB000080B584B000AF021CA8
:100E00003960FB1D1A703B1C0E3300221A803B68B0
:100E1000BB603B1C0E3300221A8017E03B1C0E33D4
:100E20001B88BA68D3181B78FA1D1278101C191C7D
:100E3000FFF798FF031C002B01D001230FE03B1CA0
:100E40000E331A883B1C0E3301321A803B1C0E33C2
:100E50001B88BA68D3181B78002BDFD10023181C1D
:100E6000BD4604B080BDC04680B586B000AF021C50
:100E70003960FB1D1A70244BFB60FB1D1B785A1E4A
:100E8000224B9200D358BB6000237B6126E0FB1D00
:100E90001B78002B0FD1FB681B79DBB21A1C2023B7
:100EA000134018D03B1C1333FA68D2791A703B6890
:100EB00000221A7016E0BB681B79DBB21A1C2023D3
:100EC000134008D03B1C1333BA68D2791A703B68C0
:100ED00000221A7006E07B6901337B617A690C4B52
:100EE0009A42D4D97A690A4B9A4206D93B1C1333E9
:100EF000FF221A703B6801221A703B1C13331B78C7
:100F0000181CBD4606B080BD00A006404C14000071
:100F1000BAFB000080B584B000AF021CFB1D1A7044
:100F2000134BFB60FB1D1B785A1E124B9200D358CB
:100F3000BB60FB1D1B78002B08D1FB68DB78DBB2A4
:100F400020221343DAB2FB68DA7007E0BB68DB7873
:100F5000DBB220221343DAB2BB68DA70FB1D1B78C8
:100F6000054AD35C181CFFF747FDBD4604B080BDA1
:100F700000A006404C1400001004002080B584B08E
:100F800000AFB9607A603B1C0E33021C1A803B1C18
:100F90000E331B881B0A9BB2DAB2BB681A703B1C6B
:100FA0000E331B88DAB27B681A70BD4604B080BD70
:100FB00080B586B000AFBB1D18807B1D19703B1D2E
:100FC0001A70BB1D19883A1C0F323B1C0E33081CCB
:100FD000111C1A1CFFF7D2FF3B1C0F331B781A1C85
:100FE0002A4B9200D3587B613B1C0F331B781A1C91
:100FF000274B9200D3583B613B1C0E331B781A1CC5
:101000003B1C0E331B78191C7B698900C958214B86
:1010100019407B699200D1503B1C0E331B781A1C7F
:101020003B1C0E331B78191C7B698900CB5880212F
:10103000490019437B699200D1507B1D1B78012B1D
:1010400014D13B695A693B1C0E331B780121081CE3
:101050009840031C1A433B695A61BB1D1A883B1D0B
:101060001B78101C191C00F017F80CE03B695B6939
:101070003A1C0E3212780121081C9040021CD24307
:101080001A403B695A61BD4606B080BD5414000049
:1010900068140000FFF8FFFF80B584B000AF0A1CA1
:1010A000BB1D011C19807B1D1A70BB1D19883A1CC1
:1010B0000B323B1C0A33081C111C1A1CFFF75EFF85
:1010C0003B1C0B331B781A1C124B9200D358FB604D
:1010D0007B1D1B78012B0CD1FB681A683B1C0A3363
:1010E0001B780121081C9840031C1A43FB681A60F6
:1010F0000CE0FB681B683A1C0A3212780121081CBC
:101100009040021CD2431A40FB681A60BD4604B0EE
:1011100080BDC0466814000080B584B000AF021CDA
:10112000BB1D1A80BB1D19883A1C0B323B1C0A33AD
:10113000081C111C1A1CFFF721FF3B1C0B331B78EA
:101140001A1C094B9200D358FB60FB68DA683B1C01
:101150000A331B780121081C9840031C1A43FB68C2
:10116000DA60BD4604B080BD6814000080B500AFF1
:10117000084A88235B010021D15000F00DF800F0EF
:1011800035F800F051F800F085F800F071F8FFF73D
:10119000E1FBFEE70070044080B582B000AF0E4A6C
:1011A0000E4B9A4211D000237B600AE00B4A7B6809
:1011B000D3181A7808497B68CB181A707B680133FA
:1011C0007B607A68064B9A42F0D9064A0249064B80
:1011D000D150BD4602B080BD00F0FF1F00000000EE
:1011E0000F04000000E000E0080D000080B584B0AE
:1011F00000AF0B4BFB600B4B7B607A68FB68D31A2C
:10120000BB6004E0FB685A1CFA6000221A70BB68DD
:101210005A1EBA60002BF5D1BD4604B080BDC04651
:10122000140400201404002080B584B000AF0D4BDE
:10123000FB600D4B3B600D4BBB603A68FB68D31AFB
:101240007B6007E0FB685A1CFA60BA68511CB96001
:1012500012781A707B685A1E7A60002BF2D1BD4654
:1012600004B080BD10040020140400207C14000091
:1012700080B500AF054A0549054BCB58F8218901D7
:101280001943034BD150BD4680BDC0460070044099
:101290003810000080B582B000AF00237B60FB1CDB
:1012A00000221A70544B14225A70534B98221A7011
:1012B00000237B600AE0504B9B79DBB21A1C0223AF
:1012C000134000D006E07B6801337B607A684B4BAB
:1012D0009A42F0D900237B600AE0474B9B79DBB24E
:1012E0001A1C1023134000D106E07B6801337B6099
:1012F0007A68434B9A42F0D900237B600CE03E4B66
:101300009B79DBB21A1C0C2313409B08022B00D1E3
:1013100006E07B6801337B607A68394B9A42EED9EC
:10132000354B354A5279D2B220210A43D2B25A7192
:10133000314B314A1279D2B201210A43D2B21A7129
:101340002D4AFB1C52791A70FB1CFA1C12781F21C3
:101350008A431A70FB1CFA1C127840210A431A7047
:10136000254BFA1C12785A7100237B600AE0224B4D
:101370009B79DBB21A1C2023134000D006E07B6867
:1013800001337B607A681E4B9A42F0D900237B6060
:101390000AE0194B9B79DBB21A1C4023134000D0A2
:1013A00006E07B6801337B607A68164B9A42F0D97D
:1013B000154A164B1649D1500F4B0F4A1278D1B22D
:1013C0003F220A40D2B21A7000237B600CE00A4B25
:1013D0009B79DBB21A1C0C2313409B08032B00D112
:1013E00006E07B6801337B607A68054B9A42EED950
:1013F000BD4602B080BDC046004006401F4E000002
:10140000CF0700009F0F0000007004404410000050
:101410000000011080B500AFBD4680BD48656C6C12
:101420006F20556172745F30210D0A0048656C6C45
:101430006F20556172745F31210D0A0048656C6C34
:101440006F20556172745F32210D0A0000B00640B2
:1014500000C006400090044000A0044000B00440DA
:1014600000C0044000D0044000F00F4040F00F40A6
:0C14700080F00F40C0F00F4000F10F4072
:04147C000C0D0E0045
:101480007C14000010040020040000008014000000
:1014900010F4FF1F0000000000000000000000002A
:0414A0000000000048
:040000030000116D7B
:00000001FF
